:020000040800F2
:1000000070070020A9020008A91B0008A11B000816
:10001000A51B0008E50C0008051E000800000000F4
:10002000000000000000000000000000B11B0008FC
:10003000E90C000800000000AD1B0008C102000828
:10004000C3020008C3020008C3020008C30200087C
:10005000C3020008C3020008C3020008C30200086C
:10006000C3020008C3020008C3020008C30200085C
:10007000C3020008C3020008C3020008C30200084C
:10008000C3020008C3020008C3020008C30200083C
:10009000C3020008C3020008C3020008C30200082C
:1000A000C3020008C3020008C3020008C30200081C
:1000B000C3020008C3020008C3020008C30200080C
:1000C000C3020008C3020008C3020008C3020008FC
:1000D000C3020008C3020008C3020008C3020008EC
:1000E000C3020008C3020008C3020008C3020008DC
:1000F000C3020008C3020008C3020008C3020008CC
:10010000C3020008C3020008C3020008C3020008BB
:10011000C3020008C3020008C3020008C3020008AB
:10012000C3020008C3020008C3020008C30200089B
:10013000C30200080000000000000000C302000825
:10014000C3020008C3020008C3020008C30200087B
:10015000C3020008C3020008C3020008C30200086B
:10016000C3020008C3020008C3020008C30200085B
:10017000C3020008C3020008C30200080000000018
:1001800000000000C30200080000000000000000A2
:10019000C30200080000000000000000C3020008C5
:1001A000000000000000000000000000C302000882
:1001B000C3020008C3020008C3020008C30200080B
:1001C000C302000800F002F800F05FF814A696E8F9
:1001D000000CB244B344DA4501D100F056F8BAE855
:1001E0000F000FA696E83000A5EB040504EB060708
:1001F000AAEB0704A7F101074FEA15154FEA3414DB
:10020000A4F10104AC4201D300F03FF813F0010F58
:1002100018BFFB1A43F0010300F001F8DBE71847B1
:100220002C2B00004C2B0000103A24BF78C878C15A
:10023000FAD8520724BF30C830C144BF04680C60EC
:1002400070470000704700000023002400250026AE
:10025000103A28BF78C1FBD8520728BF30C148BF29
:100260000B607047662902F01885002070471FB5A3
:1002700002F001FD00F0C0FB04000020002102F0AC
:1002800043FBE0601FBD10B510BD00F0B5FC11468A
:10029000FFF7EDFF01F0B8FD00F0D3FC03B4FFF76A
:1002A000F2FF03BC00F016FD0948804709480047EB
:1002B000FEE7FEE7FEE7FEE7FEE7FEE7FEE7FEE716
:1002C000FEE7FEE704480549054A064B7047000073
:1002D000B51B0008C5010008700100207007002050
:1002E000700300207003002053EA020C00F06980C4
:1002F0002DE9F04B4FF00006002B1FBFB3FA83F53A
:1003000003FA05F424FA05F65E4012BF1643B2FA6A
:1003100082F502FA05F4C5F120051EBF22FA05FC9C
:1003200044EA0C04203556EA044C4FEA144418BF42
:10033000641C4FF000084FF00009904271EB030C71
:1003400039D3002919BFB1FA81F701FA07F6B0FADB
:1003500080F700FA07F6C7F120071EBF20FA07FC56
:1003600046EA0C062037B6FBF4FCA7EB0507103F66
:1003700007F01F0BCBF120062CFA06F60CFA0BFB4C
:1003800044BFB3460026202FA4BF5E464FF0000BAB
:100390005BEA060C08BF4FF0010B19EB0B0948EBA9
:1003A0000608ABFB027C06FB02CC0BFB03CCC01B9C
:1003B00071EB0C01C1E70B46024641464846BDE8D9
:1003C000F08B13B5084318BF4FF0FF300146AFF371
:1003D0000080BDE81C4070470FB41CB5074B06AA4F
:1003E0007B4469460090059800F0EDFA00206946CC
:1003F00000F0FCFA1CBC5DF814FB000009060000CC
:100400002DE9F0474FF0000A89460446C0F820A0C5
:100410002046E1688847002876D0252806D0D4E910
:1004200001219047206A401C2062F1E7E1682046E4
:1004300000258847C4F81CA006460027C4F818A069
:100440002A2E09D0304602F057FA38B304EB870859
:10045000303EC8F8186019E059F8041B204604EB38
:1004600087029161E1688847012F064618D1E0694B
:10047000002820DA25F020051DE0D8F8180000EB50
:10048000800006EB40003038C8F818002046E168CC
:100490008847064602F030FA0028EED1012F0AD034
:1004A0002E2E08D12046E16888477F1C0646022F81
:1004B00045F02005C4DBA069002803DA404245F07E
:1004C0000105A061E80701D025F01005B6B1A6F13D
:1004D0004100192802D8203645F400654A463146C5
:1004E000204625604D46FFF7BDFE58B1012806D0D5
:1004F000ED1D25F0070000F1080989E704E005F18A
:10050000040985E730468AE7206ABDE8F08710B520
:10051000431C02E010F8011B71B18107FAD14FF0C2
:10052000013202C88C1A8C4314EAC211F9D0C01AE5
:100530000A0603D0C01E10BDC01A10BD0A0401D0A7
:10054000801E10BD0902FCD0401E10BD4FF00002FD
:1005500000B5134694469646203922BFA0E80C50B9
:10056000A0E80C50B1F12001BFF4F7AF090728BF94
:10057000A0E80C5048BF0CC05DF804EB890028BF10
:1005800040F8042B08BF704748BF20F8022B11F039
:10059000804F18BF00F8012B7047704770477047B5
:1005A0002DE9FF4F0C461E464FF0FF378BB0D2E9C6
:1005B0000001DDF860800A908A46C1F30A5505B94A
:1005C0003D46002108464FF00000BAF1000F00F44C
:1005D000400005DA00EB80004FF4400101EA5000D2
:1005E0004FEA9059B9F1010F00DDB9460A9850EA77
:1005F0004A000ED044F61050A5F2FF3545432F14A3
:10060000B8F1000F1ED07542291E1EDDC9F100028F
:100610001CE0B8F1010F4FF0000001D0302103E0E1
:10062000F24305E02154401CB042FBDB304600227F
:10063000002121540B99C1F80880C1E900200FB0B6
:10064000BDE8F08FBD1B6D1CDEE74A4600DA69424B
:1006500006A800F05BFA06AB93E8070003AB83E85B
:10066000070050460A9901F067FD8DE80700A0F5E4
:1006700000501F3800900398002D0ADD42F21F0140
:100680004A460844002303A90390684601F0D0FFBE
:1006900009E0A0F500504A461F38002303A9039043
:1006A000684601F0DAFF8DE807000004000C03D073
:1006B0004FF0FF30410800E01046B8F1000F03D0C2
:1006C0000022009215461EE0751E05D400F098F930
:1006D000303262556D1EF9D5B3460122084302D06F
:1006E00000227F1C04E02078302801D100227F1EE8
:1006F000002A099784D01DE0112D07DA00F080F957
:10070000303262556D1C50EA0102F5D1084302D027
:100710000098C8B10EE00021681E05E0235C625C11
:1007200063542254401E491C8142F7DBAB46A81B90
:10073000401E0990002004F80B000B98099AC0F89D
:100740000880C0E9002B7AE711264FF0000857E730
:100750002DE9F04F88460446D21D22F0070191B0E2
:10076000D1E90001CDE90A0102F0AEF802460B988A
:10077000C00F01D02D2007E02068810701D52B2074
:1007800002E0202101EAC000032A099001D0072AD3
:1007900005DB03464146204600F078F90BE120785E
:1007A000800601D5E06900E00620B8F1650F8146BA
:1007B00006D0B8F1660F18D0B8F1670F70D131E0EC
:1007C0000020B9F1110F009001DB112301E009F1C4
:1007D00001030AAA01A90CA8FFF7E2FEDDE90C70EB
:1007E000002609F10105834647E001204B460090B1
:1007F0004FF000470AAA01A90CA8FFF7D1FEDDE9D6
:100800000DB00C995D46002610B909F101000D18D4
:10081000B9EB050003D4C0F1FF3609F10105A5EBE2
:1008200009002BE0B9F1010F01DA4FF001090020B6
:10083000B9F1110F0090484601DD112300E0034695
:100840000AAA01A90CA8FFF7ABFEDDE90C704D4622
:1008500000268346207800070AD4AB4500DA5D46BF
:1008600001A8012D04DD411911F8011C302907D020
:100870004F4502DA17F1040F04DA012082460FE037
:100880006D1EEEE7002F02DCED1B3E4403E0781CFA
:10089000A84200DD7D1CB81B00F1010A4FF00047A3
:1008A0002078000703D4AA4501DB4FF0FF3A00216E
:1008B000B7F1004F0DF143088DF8431024D002200A
:1008C0002B23002F01DA7F422D230A21021EA0F1E3
:1008D000010000DC5FB197FBF1FC97FBF1F201FB3B
:1008E0001C7C17460CF1300C08F801CDEEE7A8F19E
:1008F000010003702188090501D5452100E065212B
:10090000A0F1010800F8011C09980FA9A1EB080744
:10091000FF1D00B10120411901EBEA70A1693844C3
:10092000081A401EA0612078C00602D42046AFF30A
:100930000080099828B1D4E901219047206A401C21
:1009400020622078C00622D52046AFF300801EE04A
:10095000002E04DBB34502DD01A8805D00E03020FD
:10096000D4E901219047206A401C2062761CAAF13C
:1009700001005FEA000A0AD100F03EF8C068016891
:10098000405CD4E901219047206A401C2062281E67
:10099000A5F10105DCDC07E0D4E9012118F8010B21
:1009A0009047206A401C2062381EA7F10107F3DC43
:1009B0002046AFF30080032011B041E601694A1CD4
:1009C00002610878704700B58FB0CDE90131002190
:1009D000059105497944CDE9031011466846FFF7B2
:1009E0000FFD0FB000BD0000E5FFFFFF0A6802F831
:1009F000010B0A607047000000487047300000207B
:100A000030B5B0F10A0271F100034FEA900E4EEAE0
:100A1000817EB0EB0E0061EB91014FEA101E4EEAB1
:100A2000017E10EB0E0041EB11114FEA102E4EEA41
:100A3000016E10EB0E0041EB11214FEA104E4EEA11
:100A4000014E10EB0E0041EB1141401841F1000145
:100A50004FEAD00040EA41704FEAD1014FEA8104E9
:100A600044EA907410EB800544EB01046D1944EBEB
:100A70000404521BA3414FF0000348BF0A3200D5C3
:100A800030BD401C41F1000130BD00002DE9F041B6
:100A90001F46044603260168072A01F4006004DBB0
:100AA00008B116A505E016A503E008B115A500E0FC
:100AB00015A521F010002060A069C01EA0610FB133
:100AC000401EA0612046AFF300804FB1D4E9012160
:100AD00038469047206A401C2062C01C206206E015
:100AE000206AFAE7D4E9012115F8010B9047761E38
:100AF000F8D22046AFF30080BDE8F0814E414E00B1
:100B00006E616E00494E4600696E66002DE9F04741
:100B1000814616468AB0354878440DC88DE80D00E8
:100B200032487844801C03AC0DC884E80D0041F6BF
:100B30009B300844372190FBF1F290FBF1F5A5F1D1
:100B4000800501FB12041B3C02D56442012000E039
:100B50000020DFF898A080460027FA44AAF1BE0AD8
:100B60000EE0E0070AD03246684607EB4701012352
:100B70000AEB810101F071FD8DE8070064107F1C14
:100B8000002CEED1194F7F44AE3F19E0E80715D095
:100B900007EB04100DF1180A90E80E008AE80E0029
:100BA000C068F04201D1981908903246012306A985
:100BB00003A801F052FD03AB83E807006D10641C2D
:100BC000002DE3D14FF0010332466946B8F1000F22
:100BD00003A802D001F02CFD01E001F03EFDC9E9BF
:100BE0000001C9F808200AB0BDE8F0870022000023
:100BF00000487047100000207546FFF7F9FFAE4629
:100C000005006946534620F00700854618B020B518
:100C1000FFF758FBBDE820404FF000064FF00007FB
:100C20004FF000084FF0000BAC46ACE8C009ACE850
:100C3000C009ACE8C009ACE8C00921F007018D4645
:100C4000704710B50446AFF300802046BDE8104061
:100C5000FFF724BB0000000030B44FF0013C50F817
:100C6000042B51F8043BCCFA52F4D51A20D1FCB92C
:100C700050F8042B51F8043BCCFA52F4D51A17D192
:100C8000B4B950F8042B51F8043BCCFA52F4D51AFD
:100C90000ED16CB950F8042B51F8043BCCFA52F445
:100CA000D51A05D1002CDAD030BC4FF000007047C7
:100CB00029BAB1FA81F111F01801D1F12000844074
:100CC000F2D1CA40CB4012F0FF0213F0FF0330BC58
:100CD000D01A704701491820ABBEFEE7260002007B
:100CE00070470000FEE7000070470000B0B5044602
:100CF00000F0ECF8054640F20000C2F20000007877
:100D0000611C18BF044400BF00F0E0F8401BA04283
:100D1000FAD3B0BD2DE9F04F82B000F13E4707F1A4
:100D2000FF77860546EA972741F60006C4F20206D9
:100D3000072243F6004EB04208BF0622C4F2010E5D
:100D4000062F38BF3A46002600274FF000080092D1
:100D500009E000BF08F101080237B8F1100F06F1F1
:100D6000040600F0A3800D68012202FA08F415EAD7
:100D70000409EFD0D1F804B003220BF0030CACF15E
:100D80000105BA40012D6FEA020A0FD88268CD68CA
:100D900002EA0A02BD402A4382604268A243CBF3C2
:100DA000001404FA08F42243426005E0BCF1030F8A
:100DB00002D14FF0030C1EE0C2688C6802EA0A02FE
:100DC000BC402243BCF1020FC26014D16FF0030299
:100DD00002EA58020244D2F820C006F01C040F2395
:100DE0000D69A3402CEA0303A5402B431362D1F8FD
:100DF00004B00BF0030C02680CFA07F302EA0A02D3
:100E00001A431BF4403F0260A4D0002243F644037F
:100E10000192C4F202031A684FF6084C42F4804271
:100E20001A601A68CFF6FF7C02F480420192019AA0
:100E300028F00302724452F80C3006F00C050F241F
:100E4000AC40A343009C04FA05F52B4342F80C3058
:100E5000DEF808204B6842EA090543F60C4CDC0238
:100E600058BF22EA0905CEF80850C4F2010CDCF89C
:100E700000209C0242EA090558BF22EA0905CCF885
:100E80000050DEF804209C0342EA090558BF22EA1C
:100E90000905CEF80450DEF80020DB0342EA09051C
:100EA00058BF22EA0905CEF8005053E702B0BDE86A
:100EB000F08F00000069084018BF01207047000053
:100EC000002A08BF090481617047000040F26810E1
:100ED000C2F200000068704780B543F60040C4F2DB
:100EE0000200016841F400710160016841F4806111
:100EF0000160016841F480710160032000F076F820
:100F0000002000F005F800F027F8002080BD000068
:100F100070B540F20006C2F2000640F208013278D5
:100F2000C2F200014FF47A730968B3FBF2F204468F
:100F3000B1FBF2F1084600F085FB0F2C4FF00105E4
:100F400008D838B94FF0FF3021460022002500F0C4
:100F500021F87460284670BD82B0002043F640013D
:100F60000190C4F202014A6842F480424A604A6831
:100F700002F480420192019A0090086840F080508B
:100F80000860086800F0805000900098072002B0C8
:100F900000F02CB810B54EF60C5CCEF2000CDCF86C
:100FA0000030C3F3022E8EF00704042C28BF042463
:100FB000BEF103034FF0FF3E0EFA04F438BF0023E6
:100FC000A14399400EFA03F39A43114300F00F0234
:100FD00000F160430901043A03F5644362440028C8
:100FE00048BF02F10C03197010BD00004EF60C5101
:100FF000CEF200010A684FF6FF031A4060F30A229E
:1010000042F0806040F0FD7008607047002804BF27
:10101000012070472DE9F04143F60808C4F20208A8
:101020000446D8F8F8030D4600F00F00884207D2B6
:1010300088F8F853D8F8F80300F00F00A84277D1E9
:101040002068810717D5410705D5D8F8001041F46D
:10105000E051C8F80010010705D5D8F8001041F498
:101060006041C8F80010D8F80010A26821F0F00123
:101070001143C8F80010C00740D1D8F8F80300F0B9
:101080000F00A84207D988F8F853D8F8F80300F001
:101090000F00A8424CD12068410707D5D8F80010AE
:1010A000E26821F4E0511143C8F80010000708D5A8
:1010B000D8F80000216920F4604040EAC100C8F877
:1010C000000000F07DF8D8F8001042F63452C1F369
:1010D0000311C0F60002515C40F2080220FA01F14F
:1010E00040F20400C2F200000068C2F20002116087
:1010F000FFF70EFF0020BDE8F08100BF6068811E91
:10110000022907D258F8081C89015CBF0120BDE8FC
:10111000F08111E0012807D158F8081C89035CBF51
:101120000120BDE8F08107E058F8081C890703D4C6
:101130000120BDE8F08100BFD8F8001021F00301C4
:101140000843C8F80000FFF7C1FE064641F28837A1
:10115000D8F80000616800F00C00B0EB810F8CD073
:10116000FFF7B4FE801BB842F2D90320BDE8F0813E
:1011700040F2080043F60801C2F20000C4F2020186
:101180000068096842F64452C1F38221C0F60002A9
:10119000515CC8407047000040F2080043F6080167
:1011A000C2F20000C4F202010068096842F644522B
:1011B000C1F34231C0F60002515CC84070470000E4
:1011C00010B543F60404C4F202046068C0F3810160
:1011D00042F20040C0F2F400DFE801F042020818D9
:1011E00041F20020C0F27A0010BD00BF216801F07A
:1011F0003F02216823684902C3F3881116D4A1FB7A
:1012000000010023FFF770F817E000BF216801F02C
:101210003F02216823684902C3F3881114D4A1FB5B
:1012200000010023FFF760F815E000BF41F2002045
:10123000C0F27A004843B0FBF2F021680222C1F309
:10124000014102EB410109E041F20020C0F27A00C5
:101250004843B0FBF2F02168C1F30271B0FBF1F03A
:1012600010BD0000002804BF012070472DE9F041A7
:1012700082B00446007843F60006C007C4F20206B6
:101280000CD0B06800F00C00042840F08980306871
:10129000800303D56068002800F050812078800723
:1012A00023D5B06810F00C0F11D0B06800F00C001E
:1012B000082802D17068400209D5B06800F00C001F
:1012C0000C2840F09F807068400200F19B803068DD
:1012D000800703D5E068012840F03081306821693B
:1012E00020F0F80040EAC10030602078000713D4F5
:1012F000207840072AD4A569002D00F01A81B06833
:1013000000F00C00082840F0AB80012D40F0E88090
:10131000012002B0BDE8F0816069002840F20000C1
:10132000C4F2472000F088800121C0F8801EFFF73A
:10133000CDFD0546706F8007DAD4FFF7C7FD401B6F
:101340000228F7D9032002B0BDE8F081306C5FEAD3
:10135000C0080AD400200190306C40F08050306406
:10136000306C00F080500190019847F20007C4F201
:1013700000073868C00537D4386840F4807038609A
:10138000FFF7A4FD054600BF3868C0052CD4FFF761
:101390009DFD401B0228F7D9032002B0BDE8F08173
:1013A000B06800F00C00082803D1706840023FF5D7
:1013B0006EAFB06800F00C000C2803D170684002DA
:1013C0003FF565AF6068B0F5803F07D0B0F5A02F5E
:1013D00040F0CC80306840F480203060306840F4C9
:1013E00080303060CCE000BFA068012805D005281F
:1013F00058D1306F40F004003067306F40F001008A
:1014000030675AE0E068002800F09C800020C4F2B9
:10141000472001210160FFF759FD0546306880072C
:101420003FF55CAFFFF752FD401B02284FF0030071
:10143000F4D902B0BDE8F0810021C0F8801EFFF7AA
:1014400045FD0546706F80077FF552AFFFF73EFD03
:10145000401B0228F6D9032002B0BDE8F08100BF8E
:101460000027C4F2472700203866FFF72FFD022D22
:1014700005460BD13068800140F19480FFF726FDCE
:10148000401B02284FF00300F4D9D2E730688001F6
:101490004FD5FFF71BFD401B02284FF00300F5D985
:1014A000C7E700BF316F002821F001013167316FBC
:1014B00021F00401316700F09980FFF707FD054630
:1014C00041F28837306F800700F1A280FFF7FEFC01
:1014D000401BB842F6D9032002B0BDE8F08100BF3E
:1014E0007068E16900F480028A4227D1216A00F025
:1014F0003F028A4222D147F6C071626A0140B1EBD5
:10150000821F1BD1A16A4FF6FF73C903994300F4F0
:101510004032A1F580318A4210D1E16A00F0706258
:10152000B2EB016F0AD1216B00F0E040B0EB017F1C
:1015300004D1002002B0BDE8F08100BF012002B05C
:10154000BDE8F0810020C4F2472000210160FFF7D0
:10155000BDFC0546306880077FF5C7AEFFF7B6FCD7
:10156000401B02284FF00300F4D962E731680028DD
:1015700021F480313160316821F48021316051D013
:10158000FFF7A4FC054600BF306880033FF586AE38
:10159000FFF79CFC401B6428F6D9032002B0BDE88D
:1015A000F08100BF04F11C052FCD246B084340EAF5
:1015B0008210D9034FF6FF729143A1F5803140EAC2
:1015C0000560084340EA0470706001203866FFF748
:1015D0007DFC044630688001ABD4FFF777FC001B2C
:1015E00002284FF00300F5D923E700BFFFF76EFC98
:1015F000054641F2883700BF306F800708D5FFF7F6
:1016000065FC401BB8424FF00300F5D911E700BF5D
:10161000B8F1000F3FF56FAE306C20F080503064B1
:1016200069E600BFFFF752FC054600BF3068800343
:101630007FF534AEFFF74AFC401B64284FF00300EF
:10164000F4D9F6E6411E0020B0EB116F1CBF01205B
:1016500070474EF21002CEF2000251604EF6235156
:10166000CEF20001F0230B700721906011607047EB
:1016700090F83C20012A4FF0020254D010B580F8B7
:101680003D200268D2F804E0D2F808C00C682EF0C1
:101690007003234341F2FF74C4F20004A24253607A
:1016A0000EDC40F2FF73C4F200039A4216DCB2F182
:1016B000804F2BD040F20043C4F2000324E000BF6F
:1016C00040F2FF33C4F201039A4213DC41F60003F7
:1016D000C4F200039A4219D0002313E040F600033D
:1016E000C4F200039A4211D040F60043C4F2000352
:1016F0000AE000BF44F20003C4F201039A4205D09D
:1017000040F20043C4F201039A4204D149682CF02C
:101710008003194391600121002280F83D1080F878
:101720003C20BDE81040104670470000002804BF70
:101730000120704710B5044690F83D0028B90020FC
:1017400084F83C00204600F01FF8022084F83D0099
:101750002068211D00F038FA012084F8460084F842
:101760003E0084F83F0084F8400084F8410084F88B
:10177000420084F8430084F8440084F8450084F86B
:101780003D00002010BD0000006840F60001C4F2DA
:101790000001884218BF704781B00020009043F6D6
:1017A0004000C4F20200016841F0040101600068D9
:1017B00000F004000090009801B0704790F83C20C1
:1017C000012A4FF0020200F0C58080B580F83D206C
:1017D000D0F800C04FF67772DCF8083023EA020236
:1017E000CCF808200B684F2B28DC1F2B44DD202B66
:1017F00045D0302B43D0402B40F0AE80D1F804E0F0
:10180000C968DCF82030DCF8202022F00102CCF896
:101810002020DCF8182022F0F00242EA011123F027
:101820000A0242EA0E02CCF81810CCF82020DCF8AC
:10183000081041F0470121F0300180E06F2B27DDD7
:10184000B3F5005F48D0B3F5805F7AD0702B40F0DD
:101850008380D1E901E3C968DCF8082043EA0E037C
:1018600022F47F4243EA01211143CCF80810DCF84E
:10187000081041F0770162E00BB1102B6CD1DCF85D
:10188000081021F07001194341F0070157E000BF33
:10189000502B35D0602B5FD1D1F804E0C968DCF85B
:1018A0002030DCF8202022F01002CCF82020DCF8D8
:1018B000182022F4704242EA013123F0A00242EAE9
:1018C0000E12CCF81810CCF82020DCF8081041F0EB
:1018D000670121F0100132E0D1E901E3C968DCF8C9
:1018E000082043EA0E0322F47F4243EA0121114318
:1018F000CCF80810DCF8081041F480411FE000BF6C
:10190000D1F804E0C968DCF82030DCF8202022F0AF
:101910000102CCF82020DCF8182022F0F00242EA84
:10192000011123F00A0242EA0E02CCF81810CCF89A
:101930002020DCF8081041F0570121F02001CCF8FC
:1019400008100022012180F83D10002180F83C1091
:10195000BDE88040104670470122F3E7002804BF2D
:101960000120704710B5044690F8410028B90020C6
:1019700084F84000204600F021F8242084F841003B
:101980002068C16821F40051C160204600F0C2F90E
:101990002068016921F490410161416921F02A0127
:1019A0004161C16841F40051C160002020216064A0
:1019B00084F8411084F84210606310BD016844F25D
:1019C0000040C4F20000814218BF704780B586B065
:1019D000002143F630020191C4F20202136900F5BE
:1019E000DE3043F400331361136903F400330193D1
:1019F000019B0191136843F001031360126802F028
:101A000001020192019A0C2201920222CDE90221E7
:101A1000032104910721059101A9FFF77BF906B085
:101A2000BDE88040704700002DE9F041044690F881
:101A3000410020281CBF0220BDE8F0810D4600298E
:101A40004FF0010000F0AA801646002A08BFBDE84A
:101A5000F081002060642120984684F84100FFF75F
:101A600035FAA684E684A1680646B1F5805F02D106
:101A70002069002862D02F460025E08C002861D024
:101A800018F1010018D0B8F1000F37D1216808E033
:101A900017F8010B4860E08C0138E084E08C0028E6
:101AA00051D00868000673D5002FF1D135F8020B2C
:101AB00000276FF35F20EDE7216802E00868000669
:101AC00009D40868000606D4086800065CBF0868E8
:101AD0005FEA0060F2D51FB117F8010B05E000BF07
:101AE00035F8020B00276FF35F204860E08C013867
:101AF000E084E08C0028E4D125E000BF216800BF2D
:101B00000868000608D4FFF7E1F9801B404541D87A
:101B10002168C868F4E700BF17B117F8010B04E0AB
:101B200035F8020B00276FF35F204860E08C013826
:101B3000E084E08C0028E3D105E000BF0027E08CC2
:101B400000289DD12168086840061FD4B8F1000F15
:101B50001ED018F101000FD10868400616D408689D
:101B6000400613D40868400610D4086840064FF0B9
:101B70000000F1D50FE000BFFFF7A8F9801B40453A
:101B800008D82068C16800684006F5D5002002E04A
:101B9000FFF79CF90320202184F84110BDE8F08173
:101BA000FEE70000FEE70000FEE7000070470000CF
:101BB000704700004EF68850CEF20000016841F4F4
:101BC000700101607047000010B540F6FF3E0368E9
:101BD000C4F2000E40F2004C7045C4F2010C27DC48
:101BE000B0F1804F31D040F20042C4F20002904286
:101BF0002BD040F60002C4F20002904225D041F6FC
:101C0000FF72C4F20002904229DC70453CDCB0F166
:101C1000804F5FD040F20042C4F20002904259D09F
:101C200040F60002C4F20002904253D056E000BFDA
:101C300040F60042C4F20002904206D0604504D053
:101C40000022C4F201029042D9D14A6823F0700305
:101C5000134341F6FF72C4F200029042D5DD43F611
:101C6000FF72C4F20102904222DC42F20002C4F28E
:101C7000000290422ED00022C4F20102904229D0EC
:101C8000604527D02AE000BF40F60042C4F20002BF
:101C900090421FD041F60002C4F20002904219D0D7
:101CA00041F60042C4F20002904213D016E000BF99
:101CB00044F20002C4F2010290420BD044F600024A
:101CC000C4F20102904205D044F20042C4F2010283
:101CD000904203D1CA6823F44073134323F0800277
:101CE0004B69D1F800E08C681A430260C46240F48A
:101CF0008062C0F828E0624504BF096901630121E0
:101D000041610169C90708BF10BD016921F00101E6
:101D1000016110BD10B504460068D4E902C2236910
:101D2000016921F4405111430161626943EA0C01E8
:101D3000E3691143C268194349F20C639A431143A2
:101D4000C1604169A26921F4407141F2004311432D
:101D500040F48062C4F201039A42416102D1FFF76C
:101D60001BFA01E0FFF704FAE16963681922B1F593
:101D7000004FA0FB020123D15A00DB0FFEF7B4FA9B
:101D800048F21F51C5F2EB11A0FB01235A094FF68F
:101D90009C73C0F6FF7303F1805302FB03003223F0
:101DA00003EBC000A0FB01014FF4F87000EA111032
:101DB00000EB0210C1F3421108442168886010BD95
:101DC0009A009B0FFEF790FA48F21F51C5F2EB11F3
:101DD000A0FB01235A094FF69C73C0F6FF7302FB68
:101DE0000300322303EB0010A0FB0101F02000EA06
:101DF000511000EB0210C1F34311084421688860C0
:101E000010BD0000FEE7000092B0002440F610066E
:101E1000C4F20204C4F20006FFF75EF80DF11409E3
:101E200009F104003021FEF791FB4FF0000843F662
:101E30003007CDF80080C4F2020738694FF0020A7B
:101E400040F0805038613869012500F080500090E2
:101E5000009847F20000CDF80080CFF6FE702158C0
:101E60006AF38F312150205800F4404000900098D0
:101E7000102009900D904FF4A8700E9004200F9040
:101E8000072010904846CDF814A00895CDE90BA87E
:101E9000FFF7E8F90F20CDE9000A4FF480596846B2
:101EA0000221CDF80880CDE90398FFF7AFF8CDE91E
:101EB0000888CDF8008038684FF4907140F0040035
:101EC00038603868002200F0040000900098CDF8D7
:101ED000008038684FF4907A40F00100386038682C
:101EE00000F00100009000982046FEF7E9FF4FF453
:101EF000005005AFCDE9050804F500603946CDF87E
:101F00001C80FEF707FF20463946CDE905A5CDE93F
:101F10000788FEF7FFFE4FF40070CDE90508204664
:101F20003946CDF81C80FEF7F5FE40F2BC07A6F15D
:101F30001000C2F20007532187E803013846CDF8AC
:101F40002080CDE90688CDE90088C7E90388C7F875
:101F50001880FFF7EBFB05A93846CDF81490FFF782
:101F60002DFC69463846FFF783FB40F2700B43F6C1
:101F7000F030C2F2000B3118584640F8041F4FF4FD
:101F8000E1310C22C0E90118C0E90388C0E9052845
:101F9000C0F81C80FFF7E2FC9FED5D8B9FED5E9B20
:101FA00040F2041A4FF00909C2F2000A0FF2701849
:101FB0002AE000BF00EE107AB8EE400A10EE100AD8
:101FC00000F0E8FD53EC182B00F0E6FC53EC192B65
:101FD00000F0E2FC00F0AEFC5F4647F8040B00F0B6
:101FE000D9FD02460B4650464146FEF7F5F95046EC
:101FF000FEF78DFA82B2384651466423FFF714FD8E
:102000004FF47A70FEF772FE20464FF48071002282
:10201000FEF756FF0220F0617560306820F0010085
:10202000306056F8100C40F0010046F8100C306893
:10203000C00709D13068C00704BF30685FEAC070CC
:1020400002D13068C007F2D030684FF4807120F0C0
:102050000100306020460122FEF732FFC6F81C90D6
:102060007560306820F00100306056F8100C40F0C8
:10207000010046F8100C3068C00709D13068C0076D
:1020800004BF30685FEAC07002D13068C007F2D088
:1020900030684FF4807120F001003060204600224B
:1020A000FEF70EFF20464FF40071FEF703FF0028F5
:1020B000F8D020464FF40071FEF7FCFE002709E03F
:1020C00030684FF4007120F0010030602046013785
:1020D000FEF7F0FE01287FF46DAFF56175603068A2
:1020E00020F00100306056F8100C40F0010046F876
:1020F000100C3068C007E3D13068C00704BF3068F7
:102100005FEAC070DCD13068C007F2D0D8E700BF0A
:10211000666666666666064000000000C58F913FF1
:1021200044697374616E63652028636D2920203DC6
:1021300020252E31660D0A005FEA400C08BF91F0A1
:10214000000F4FEA8C234FEAC12243EA51514FEA74
:102150001C5018BF00F5F0404FEA300018BF41F0A6
:1021600000415FEA6C5C00F02980BCF1FF3F08BFD2
:1021700040F080407047130C06BF12044FF0100C63
:102180004FF0000C130E04BF12020CF1080C130FD9
:1021900004BF12010CF1040C930F04BF92000CF168
:1021A000020CD30F04BF52000CF1010C11464FF08A
:1021B0000002A0F11F00A0EB0C00704711F0004FCF
:1021C00008BF704731F000413FF4D5AF0B0C06BF9C
:1021D00009044FF0100C4FF0000C0B0E04BF090265
:1021E0000CF1080C0B0F04BF09010CF1040C8B0F50
:1021F00004BF89000CF1020CCB0F04BF49000CF1A5
:10220000010CCCF1200322FA03F341EA030102FAA4
:102210000CF2A0EB0C0000F10100704723F07F47A7
:1022200020F07F4C80EA030000F00040ACEB070395
:1022300003F57C5303F1FF032DE9804909B44FEA0C
:10224000144324EA03484FEA154B25EA0B4E0FF2DC
:10225000042606EB13273E7803FB0667C7F5000745
:1022600007FB06F64FEAD64606F102064FEA543758
:1022700007FB066CCCF1005C4FEA1C472CEA074CCC
:102280000CFB06F507FB06F404EB15464FEA961621
:1022900049085FEA320234BF00204FF000404FEAA5
:1022A000D13706FB07FC4FEA1C4C0CFB0BF7D21B8B
:1022B00003FB0CF761EB07010CFB0EF7B0EB0740DB
:1022C00072EB17420CFB08F734BFA2EB0742B2EBEC
:1022D000074261EB17414FEA0C444FEA910706FBB6
:1022E00007FC4FEA1C4C0CFB0BF7B0EBC74072EB42
:1022F000573203FB0CF734BFA2EBC742B2EBC74225
:1023000061EB57310CFB0EF7B0EBC70072EB577265
:102310000CFB08F734BFA2EBC702B2EBC70261EBBC
:1023200057714FEA816141EA92114FEA826242EAB3
:1023300090124FEA806004EBCC04039F4FEAD13740
:1023400006FB07FC4FEA1C4C0CFB0BF7D21B03FBF4
:102350000CF761EB07010CFB0EF7B0EB074072EBDB
:1023600017420CFB08F734BFA2EB0742B2EB07425F
:1023700061EB17414FEA8C5504EB9C244FEA91071F
:1023800006FB07FC4FEA1C4C0CFB0BF7B0EBC740FD
:1023900072EB573203FB0CF734BFA2EBC742B2EB30
:1023A000C74261EB57310CFB0EF7B0EBC70072EB85
:1023B00057720CFB08F734BFA2EBC702B2EBC7029F
:1023C00061EB57714FEA816141EA92114FEA8262F3
:1023D00042EA90124FEA806015EB4C2544F100046C
:1023E0004FEAD13706FB07FC4FEA1C4C0CFB0BF7FE
:1023F000D21B03FB0CF761EB07010CFB0EF7B0EBF4
:10240000074072EB17420CFB08F734BFA2EB074200
:10241000B2EB074261EB17414FEA813141EA924149
:102420004FEA823242EA90424FEA80304FEA0C761D
:1024300015EB1C1544F1000448EA03434EEA0B482F
:102440004FF0000EB2EB080C71EB030724BF62469D
:1024500039464EEB0E0E4FF0000B00185241494129
:102460004BEB0B0BB2EB080C71EB03077BF1000B92
:1024700024BF624639464EEB0E0E4FF0000B00189B
:10248000524149414BEB0B0BB2EB080C71EB0307CC
:102490007BF1000B24BF624639464EEB0E0E51EA2B
:1024A000020718BF46F0010616EB0E7655F1000242
:1024B00054F1000103D5BDE88901BDE80088BDE8FD
:1024C0008901BDE80048B619524141EB0101A3F171
:1024D0000103704780807F7E7D7C7B7A7978777678
:1024E00076757473727171706F6E6E6D6C6C6B6AF1
:1024F0006A6968686766666564646363626161608F
:10250000605F5F5E5E5D5D5C5C5B5B5A5A5959580B
:102510005857575656555555545453535252525175
:10252000515050504F4F4F4E4E4D4D4D4C4C4C4BCB
:102530004B4B4A4A4A494949484848474747474612
:10254000464645454544444444434343434242424E
:10255000424141419C46002B30D477002BD04FEABA
:1025600037071CB503B44FF010004FF01001BAF15B
:10257000000F06D0BCF1000FDCBF40F0080040F0B7
:1025800008014FF000000FBCBDE810400BF1010B3B
:10259000BBF1010F08BF5FEA170722BF12F101026A
:1025A00011F101014FF0004143F1000300F0004040
:1025B00043EA00007047F9D35708D0E746EA0646D9
:1025C0004FEA164613F1400F1FDD13F1200FDFBF56
:1025D00016430A46002120335B42BED0C3F12007D8
:1025E00046EA06464FEA164602FA07F746EA0706A3
:1025F00022FA03F2C3F1200701FA07F742EA0702C1
:1026000021FA03F14FF00003A7E746EA020646EA83
:1026100006464FEA164646EA0106BCBF46EA0646AB
:10262000360C4FF000034FF000024FF0000194E72A
:102630002DE9804C70B49A46934691E8380007C85B
:1026400031EA400C48BF34EA430C03D5FFF7E6FDFE
:10265000FFF780FFF0BCBDE8008C2DE9804C70B422
:102660009A46934691E8380007C810F0804F08BF9B
:1026700013F0804F03D100F005F8FFF76BFFF0BCBB
:10268000BDE8008C20F07F4723F07F4C80EA0300F8
:1026900000F0004007EB0C03A3F57C53A3F1FE030D
:1026A00092F0000F00F0B38095F0000F00F07780FB
:1026B0002DE901494FEA114021EA00484FEA14464A
:1026C00024EA064700FB06FC08FB06F607FB08F8B1
:1026D00018EB06484CEB164C00FB07F718EB0748C5
:1026E0004CEB17404FEA124B22EA0B4E4FEA1546CD
:1026F00025EA06470BFB06FC0EFB06F607FB0EFE63
:102700001EEB064E4CEB164C0BFB07F71EEB074E71
:102710004CEB174B18EB0B0840F1000018EB0E0BBD
:1027200058EB000840F100008F1A4FF000014FF005
:1027300000063CBFC943661B14BFB5EB040C002167
:102740003CBFC943F61B4FEA174427EA04454FEA4A
:102750001C472CEA074C04FB076205FB07F70CFB40
:1027600005F616EB074642EB174204FB0CFC16EB92
:102770000C4642EB1C421BEB060658EB02024141A1
:102780004EEA8E0E46EA9E0601D5BDE80189B619CD
:10279000524141EB0101A3F10103BDE801894FEA78
:1027A000144524EA05464FEA114721EA074C05FB88
:1027B00007F406FB07F70CFB06F111EB074144EBAE
:1027C000174405FB0CFC11EB0C4144EB1C444FEA95
:1027D000124722EA074C05FB07F206FB07F70CFB42
:1027E00006F616EB074642EB174205FB0CFC16EB10
:1027F0000C4642EB1C456A1854F1000148BF704773
:10280000B619524141EB0101A3F10103704795F064
:10281000000F37D04FEA114221EA02464FEA14472F
:1028200024EA074C02FB07F106FB07F70CFB06F452
:1028300014EB074441EB174102FB0CFC14EB0C4476
:1028400041EB1C414FEA154725EA074C02FB07F50F
:1028500006FB07F70CFB06F616EB074645EB17459C
:1028600002FB0CFC16EB0C4645EB1C42121951F115
:10287000000148BF7047B619524141EB0101A3F175
:10288000010370474FEA144524EA05464FEA114711
:1028900021EA074C05FB07F106FB07F70CFB06F2E4
:1028A00012EB074241EB174105FB0CFC12EB0C420B
:1028B00051EB1C414FF0000648BF7047921841EBA6
:1028C0000101A3F10103704703B40198410000988E
:1028D00050EAC12018BF04204A0D18BF40F0010083
:1028E00040F2FF72B2EB515F08BF40F002000128D6
:1028F00008BF052002B0704730380A2801D20120F5
:10290000704700207047000010B500290AD00878F1
:10291000002807D005487844FEF79EF9002801D02A
:10292000002010BD0248784410BD0000560400008D
:102930004E04000021F0004201F00043A2F1605279
:10294000B2F5801F28BFD2F17F6C0BD95FEA001C63
:1029500043EAC20242EB507018BF704728BF20F014
:1029600001007047B2F5801FBCBF184670474FEAA0
:10297000410C1CF5001F02D2084600F089B970B561
:1029800000F0B4F800000089FFF7F6BF4FF00040F8
:10299000A0F580007047000070B5DFF848C11CEA60
:1029A000111E1EBF1CEA13159EEA0C0F95EA0C0FB0
:1029B00000F06F8081EA03044EEAD47EAE4421EA3F
:1029C0004C1123EA4C1341F4801143F48013AEF10F
:1029D0007F7EA1FB024CA0FB0365361955EB0C056D
:1029E000A1FB034C4CF10003A0FB021C16EB0C06F0
:1029F000654153F10003094218BF46F0010613F484
:102A0000007F0BD14FEA03314FEA053041EA1551FF
:102A100040EA165034036FF003020AE04FEAC32184
:102A20004FEAC52041EA555140EA5650F4026FF092
:102A3000020202EB2E4201EB025585EACE710AD06A
:102A40005FEA440C18BF24F0004450F1000041F14B
:102A5000000120EAD47040F2FE7C624500D270BDD5
:102A6000A84214BF4FF080444FF04044002E08BFEE
:102A70000024BEF1806FA8BFA1F1C041BDE8704045
:102A800080F2828001F1C04101F000414FF000006E
:102A900070470CEA13159EEA0C0F18BF95EA0C0F4D
:102AA00006D081EA030E4FF000000EF0004170BD29
:102AB00000F01CF88900013E00F007B800F009B8EA
:102AC0004FEA430C5FEA5C5C08D081EA030100F046
:102AD0005BB84FEA410C5FEA5C5CF6D102494FF00B
:102AE000000070470000FF070000F87F0EF1020EA3
:102AF0002EF0030E5EF8046B364205D4012A43EB38
:102B0000030515F5001F12D8012841EB010C1CF537
:102B1000001F0CD80ED14FEAD17C0CEB4C0C0CF101
:102B2000020C15F5001F08BF4CEBD37C04E04FF0FE
:102B3000080C01E04FEAD37C0CEB4C0526FA05F6B5
:102B400006F00706B6F1040C06D20EEB860CBDE8C3
:102B500070404CF0010C6047DFE80CF0090B0202FA
:102B60004FF00041A1F500214FF0000070BD194663
:102B70001046012851EB010418BFD4F5001484BF9E
:102B8000002001F0004170BD0808A0F500114FEAD7
:102B90003101704743004FEAD30C4FEA3C0C4340ED
:102BA0001FBF40070CF1605113F0FE4F70471CF03F
:102BB000006F03D10CF00041002070470CF000437F
:102BC00043EA507040EACC0010B500F00EF800BFA8
:102BD000000000924FEA0001FFF7D6BF4FF000411E
:102BE000A1F500214FF0000070470EF1020E2EF00B
:102BF000030E5EF8044B244204D44FEA4102B2F1C2
:102C00007F4F11D84FEA4003B3F17F4F0CD80ED15C
:102C10004FEAD07C0CEB4C0C0CF1020CB2F17F4F64
:102C200008BF4CEBD17C04E04FF0080C01E04FEA08
:102C3000D17C0CEB4C0324FA03F404F00704B4F148
:102C4000040C06D20EEB840CBDE810404CF0010CD5
:102C50006047DFE80CF0070802024FF00040A0F5E3
:102C6000800010BD0846420018BFD2F1807288BFB4
:102C700000F0004010BDF1EE100A4FF6FF71C0F2F7
:102C8000C03120EA010040F04070E1EE100A7047C8
:102C9000FF2141EAD050C0057047FDF759BD000043
:102CA00002400000000000A00000000005400000FD
:102CB000000000C8000000000C4000000000409C24
:102CC00000000000194000000020BCBE0000000011
:102CD00034400000BFC91B8E00000004B540000056
:102CE000504BCFD06607E2CF010000006C410000DE
:102CF0003E8251AADFEEA73401000000D942000055
:102D0000DCB5A0E23A301F97FFFFFFFFB44500009B
:102D1000FD25A0C8E9A3C14FFFFFFFFFFF3F000053
:102D20000000008000000000FF3F00000000008065
:102D30000000000000000000000000000102030489
:102D4000060708090000000001020304882D00089E
:102D5000000000201000000028020008982D000844
:102D60001000002060070000480200081C0000005E
:102D700043000000F8FFFFFF0C0000000E00000001
:102D80000F0000002E0000000100000010000000F5
:082D90000024F4000000000023
:04000005080001C529
:00000001FF
